:020000040800F2
:10000000E00400209D010008A71B00080719000854
:10001000A51B000809050008851F00080000000056
:10002000000000000000000000000000AB1B000802
:100030000B05000800000000A91B0008AD1B00080C
:10004000B7010008B7010008B7010008B7010008B0
:10005000B7010008B7010008B7010008B7010008A0
:10006000B7010008B7010008B7010008B701000890
:10007000B7010008B7010008B7010008B701000880
:10008000B7010008B7010008B7010008B701000870
:10009000B7010008B7010008B7010008B701000860
:1000A000B7010008B7010008B7010008B701000850
:1000B000B7010008B701000800000000B701000800
:1000C000B70100080000000000000000B7010008B0
:1000D00000000000B7010008791F0008B701000800
:1000E000B7010008B7010008000000000000000090
:1000F0000000000000000000000000000000000000
:1001000000000000000000000000000000000000EF
:100110000000000000000000B7010008B70100085F
:1001200000000000000000000000000000000000CF
:1001300000000000000000000000000000000000BF
:10014000B7010008B701000800000000000000002F
:10015000000000000000000000000000000000009F
:10016000000000000000000000000000000000008F
:10017000000000000000000000000000000000007F
:1001800000000000B7010008DFF80CD000F0AAF969
:1001900000480047C51F0008E004002006488047CB
:1001A00006480047FEE7FEE7FEE7FEE7FEE7FEE75C
:1001B000FEE7FEE7FEE7FEE7091C000889010008EC
:1001C0002DE9F05F0546002092469B46884606468C
:1001D000814640241BE0284641464746224600F01F
:1001E00020F853465A46C01A914110D3114618467A
:1001F000224600F0D3F82D1A67EB01084F4622463D
:100200000120002100F0CAF817EB00094E41201E22
:10021000A4F10104DFDC484631462A464346BDE8E6
:10022000F09F202A04DB203A21FA02F000217047D7
:1002300021FA02F3D040C2F120029140084319464E
:100240007047D2B201E000F8012B491EFBD2704783
:100250000022F6E710B513460A4604461946FFF792
:10026000F0FF204610BD2DE9FE4F81EA030404F0A3
:10027000004421F0004100944FF0000B23F00043B4
:1002800050EA01045ED052EA03045BD0C3F30A547F
:10029000C1F30A552C44A4F2F3340194A0FB025498
:1002A000C1F3130141F48011C3F3130343F480132A
:1002B00001FB024400FB034E840A970A44EA81547E
:1002C00047EA8357A4FB076802958D0A05FB07855B
:1002D0004FEA932C04FB0C542705029D4FEA065865
:1002E00047EA1637B5EB08056EEB070C870E920E42
:1002F00047EA811742EA8312A7FB0201B6EB0B0122
:1003000064EB00042B0D43EA0C335E1844EB1C50E5
:10031000DA465146E7FB0201C5F313044FEA0B33FB
:1003200043EA14534FEA0432019C43EA0603A4F162
:100330000C040294009CCDE900B400F084F803B0F2
:10034000BDE8F08F00200146F9E70EB540F23341D9
:1003500002910021CDE900110A460B4600F073F826
:1003600003B000BD01F0004330B421F0004150EA79
:10037000010206D00A0DA2F56072C1F31301002A32
:1003800002DC30BC00207047440F44EAC104C100C5
:10039000E01830BC00EBC25000F00FB8202A04DB9C
:1003A000203A00FA02F1002070479140C2F1200388
:1003B00020FA03F31943904070470029A8BF704703
:1003C000401C490008BF20F00100704710B4B0FA8B
:1003D00080FC00FA0CF050EA010404BF10BC704726
:1003E00049B1CCF1200421FA04F411FA0CF118BF40
:1003F000012121430843A3EB0C01CB1D4FEA00610F
:100400004FEA102042BF002010BC704700EBC350E1
:1004100010440029A4BF10BC7047401C490008BF0D
:1004200020F0010010BC704710B5141E73F10004D9
:1004300008DA401C41F1000192185B411A4301D1D6
:1004400020F0010010BD2DE9F04D92469B4611B100
:10045000B1FA81F202E0B0FA80F220329046FFF762
:100460009DFF04460F4640EA0A0041EA0B0153464D
:100470005A46084313D0114653EA010019D0C8F177
:1004800040025046FFF7CDFE05460E4650465946FF
:100490004246FFF783FF084305D0012004E02046D1
:1004A0003946BDE8F08D0020054346EAE0762C434E
:1004B00037430A986305E40AA0EB08000022FD0A0E
:1004C00044EA47540A3002D500200146E9E7010515
:1004D00010196941DDE9084500196941BDE8F04D91
:1004E000A2E70000064C074D06E0E06840F001037B
:1004F00094E8070098471034AC42F6D3FFF748FE63
:100500002C2100084C210008FEE7704710B590F838
:1005100021100024022903D004218163012418E062
:1005200001680A6822F00E020A6001680A6822F077
:1005300001020A6090F84020C36B012101FA02F227
:100540005A6080F82110002180F82010416B01B121
:100550008847204610BD000070B5044600F0E0F862
:100560000546601C02D004480078044400F0D8F826
:10057000401BA042FAD370BD000000202DE9FC4FC3
:10058000DFF884A1002301250AF1040B03244FF0B6
:100590000F0C0BF1040EB0E005FA03F73A406ED0F1
:1005A0004E68012E05D0022E03D0112E01D0122E3E
:1005B00017D1D0F808905E0004FA06F829EA080975
:1005C0000096D1F80C8008FA06F848EA0908C0F845
:1005D00008804668BE430F79C7F300179F40374332
:1005E0004760C6684FEA430804FA08F7BE4301971C
:1005F0008F6807FA08F73743C7604E68022E01D0AC
:10060000122E10D1DE0800EB86060096366A5F07D0
:100610004FEAD7690CFA09F7BE430F6907FA09F7E1
:100620003743009E37620668019FBE430F7907F08B
:10063000030707FA08F7374307604E68F6005BD5F3
:10064000324EB76947F00107B761B66923F0030777
:1006500006F0010600962E4E3E44B146B6689F074E
:100660004FEA17780CFA08F7BE43B0F1904F04D068
:10067000284FB84204D101270DE000270BE03BE0F2
:10068000254FB84201D1022705E0244FB84201D1DD
:10069000032700E0052707FA08F73743C9F8087071
:1006A000DAF800605746D1F8048096435FEAC8380C
:1006B00000D516433E60DBF800605F46D1F8048049
:1006C00096435FEA883800D516433E60DEF8006046
:1006D0007746D1F8048096435FEAC82800D51643D0
:1006E0003E60094F0C373E68D1F8048096435FEABC
:1006F000882800D516433E605B1C0E683246DE40FB
:100700007FF44AAFBDE8FC8F0004014000100240B6
:10071000000001400004004800080048000C0048A8
:1007200001488068704700000000002090F84120D8
:10073000202A24D190F84020012A20D0012280F8DC
:100740004020242280F841200268136823F001032E
:1007500013600268136823F48053136002681368FF
:100760000B43136001680A6842F001020A6020210D
:1007700080F84110002180F84010084670470220A0
:10078000704790F84120202A22D190F84020012A79
:100790001ED0012280F84020242280F841200268E7
:1007A000136823F0010313600268136823F4706375
:1007B00043EA0121116001680A6842F001020A60FF
:1007C000202180F84110002180F840100846704731
:1007D0000220704770B5040004D094F84100002551
:1007E00010B106E0012070BD84F84050204600F0B2
:1007F00091F9242084F841002068016821F001016A
:1008000001606068216820F070600861206881687C
:1008100021F400418160E0680128A06807D040F41D
:10082000044021688860E068022803D006E040F4B4
:100830000040F6E721684FF4006048602068416896
:10084000114A114341602068C16821F40041C16030
:10085000D4E904010843A16940EA01202168C86085
:10086000D4E907010843216808602068016841F065
:10087000010101606564202084F84100256384F84B
:100880004250002070BD0000008000022DE9F84FAA
:10089000044690F84100DDF828A01F4690468B469C
:1008A00020287ED194F8400001287AD0012084F8D5
:1008B0004000FFF735FF0646012200901923D103BF
:1008C000204601F0BDF8E0BB212084F84100102053
:1008D00084F8420000256564C4F824806785656358
:1008E000618D3148FF274FF080784FF00079FF2964
:1008F00003D927853A46009039E0618D2185009023
:100900003AE05946204601F085F813E001F0EAF894
:10091000B8B9606A216800788862606A401C6062C9
:10092000608D401E6085208D401E80B22085618DC7
:1009300001B168B1608D3246002851462046E5D1AC
:1009400000E002E001F0A8F8D0B10120BDE8F88F86
:100950005346002280212046009601F071F80028BD
:10096000F3D1608DFF2804D927853A460095434688
:10097000C7E7608D2085009594F828204B46C0E796
:1009800021682020C86121684A68084B1A404A60E3
:1009900084F8410084F8425084F840500020D5E7A4
:1009A000FFE70220D2E700000020008000E800FE00
:1009B0002DE9FF4F83B00446DDE9108790F8410030
:1009C000DDF848909A469346202874D15FEA0800E3
:1009D00014D09FB194F8400001286CD0012084F815
:1009E0004000FFF79DFE0646012200901923D10327
:1009F000204601F025F8002871D103E04FF4007083
:100A000060646CE0222084F84100402084F84200B9
:100A100000256564C4F8248067856563CDE9009688
:100A200053465A462046049900F0C2FF10B184F89C
:100A3000405054E0618D3548FF274FF080784FF0EB
:100A4000007AFF2904D927853A464346009005E0FD
:100A5000618D2185009094F8282053462046049902
:100A600000F0D8FF4B46002204212046009600F0FB
:100A7000E7FFA0BB2068406A616A0870606A401C9A
:100A80006062208D401E81B22185608D401E608590
:100A9000608DD8B1D1B94B46002280212046009606
:100AA00000F0CEFFD8B9608DFF2805D927853A46DA
:100AB0004346009506E026E0608D2085009594F879
:100AC000282053462046049900F0A4FF608D00289A
:100AD000C8D132464946204600F0DEFF18B1012059
:100AE00007B0BDE8F08F21682020C86121684A68FE
:100AF000074B1A404A6084F8410084F8425084F859
:100B000040500020ECE70220EAE7000000240080CB
:100B100000E800FE10B586B0044614216846FFF7D1
:100B200097FB1249206888421ED1114C606940F43D
:100B3000802060616069694600F480200590C020D3
:100B400000901220019001200290032003900420C5
:100B500004900848FFF712FDE06940F40010E061DE
:100B6000E06900F40010059006B010BD005400408C
:100B700000100240000400480248816802781144D5
:100B80008160704700000020074810B5016841F0FF
:100B900010010160032000F06DF8002000F006F85D
:100BA00000F024F8002010BD0020024070B50D4D6B
:100BB00004464FF47A712878B1FBF0F00A490968CD
:100BC000B1FBF0F000F010FD48B9102C07D2002264
:100BD0002146501E00F02EF800206C6070BD0120F0
:100BE00070BD0000000000200C000020094808B57E
:100BF000816941F001018161816901F00101009188
:100C0000C16941F08051C161C06900F0805000901D
:100C100008BD000000100240002809DB00F01F02A0
:100C2000012191404009800000F1E020C0F800114E
:100C300070470000F0B40E4B1B680C46C3F3022350
:100C4000C3F10705042D00D90425191D072901D278
:100C5000002300E0DB1E012606FA05F1491E2140B3
:100C600099409E40761E16403143F0BC01F08BB98E
:100C70000CED00E0064900F0070208684FF6FF039C
:100C8000184040EA0220034A104308607047000001
:100C90000CED00E00000FA052DE9F84F044600686D
:100CA000574DC0036FD5E8690026C00008D4E86935
:100CB00040F08050E861E869012600F08050009023
:100CC00050480168C90512D40168804641F480711A
:100CD0000160FFF725FD074605E000BFFFF720FD97
:100CE000C01B642835D8D8F80000C005F6D5286A9E
:100CF00010F4407053D0A18801F4407181424ED06D
:100D0000286A4FF4803191FAA1F2B2FA82F2970088
:100D10003D4A4FF00108174420F44070C7F80084A2
:100D200091FAA1F1B1FA81F102EB81010023C1F83E
:100D300000342862C00732D0FFF7F2FC074641F2C8
:100D4000883A4FF0020907E0FFF7EAFCC11B514562
:100D500002D90320BDE8F88F99FAA9F1B1FA81F11F
:100D600041F040014846B8EB511F01D129680CE021
:100D700090FAA0F1B1FA81F141F04001B0EB511FBE
:100D800002D1296A01E015E0696A99FAA9F0B0FA7E
:100D900080F000F01F0008FA00F21142D4D0286A57
:100DA000616820F44070084328621EB1E86920F0B1
:100DB0008050E8612078C00705D0286BA16820F03A
:100DC0000300084328632078800605D5286BE16876
:100DD00020F01000084328632078000605D5E86A53
:100DE000216920F4F8700843E8622088C00405D522
:100DF000286B616920F48070084328630020A9E70C
:100E00000010024000700040000042422DE9F0470F
:100E10000F46050069D04A4E306800F00700B8421E
:100E200009D2306820F0070038433060306800F0A5
:100E30000700B84259D12878424C800705D5606830
:100E4000A96820F0F000084360602878C0073DD012
:100E50006968012001290DD0022923D05FF0020327
:100E600093FAA3F2B2FA82F242F02002520904D0BD
:100E7000226803E04FF40033F2E7626A93FAA3F3C7
:100E8000B3FA83F303F01F03984002422DD0606849
:100E900020F0030008436060FFF742FC804641F207
:100EA00088390CE04FF00073DAE700BFFFF738FC39
:100EB000A0EB0801494502D90320BDE8F08760682E
:100EC000696800F00C00B0EB810FEFD1306800F0E2
:100ED0000700B8420BD9306820F007003843306073
:100EE000306800F00700B84201D00120E5E728781B
:100EF000400705D56068E96820F4E0600843606059
:100F00002878000706D56068296920F4605040EA17
:100F1000C100606000F04EF86168F02292FAA2F21F
:100F200001F0F001B2FA82F2D140074A515CC840A8
:100F30000649086006480068FFF738FE0020BCE755
:100F40000020024000100240142100080C00002084
:100F50000400002008480949006849684FF4E0622D
:100F600092FAA2F201F4E061B2FA82F2D140044AAC
:100F7000515CC840704700000C0000200010024087
:100F80002421000808480949006849684FF4605264
:100F900092FAA2F201F46051B2FA82F2D140044A0C
:100FA000515CC840704700000C0000200010024057
:100FB00024210008164A10B55168164801F00C03A8
:100FC000042B20D0082B1ED14FF4701494FAA4F4F3
:100FD00001F47013B4FA84F4E3400F4CD26AE45C79
:100FE0000F2393FAA3F302F00F02B3FA83F3DA406C
:100FF000094B1033C9039A5C06D500231946FFF745
:10100000DFF8A0FB040110BD0448A4FB000110BDE3
:101010000010024000127A00F420000800093D0090
:101020002DE9F84F050071D02878FC4EC0074FF02D
:10103000010425D070686704C0F38100012807D03F
:101040007068C0F3810002281BD17068C00318D5F6
:1010500097FAA7F0B0FA80F040F02000400901D0E4
:10106000306800E0706A97FAA7F1B1FA81F101F0F7
:101070001F0104FA01F1084265D068680028D2D047
:1010800061E06868B0F5803F0BD010B1B0F5A02FDB
:1010900017D0306820F480303060306820F4802031
:1010A00002E0306840F480303060F06AA96820F0D7
:1010B0000F000843F062686820B3FFF731FB8046F9
:1010C0000AE0306840F480203060EAE7FFF728FB50
:1010D000A0EB0800642871D897FAA7F0B0FA80F066
:1010E00040F02000400901D0306800E0706A97FAB3
:1010F000A7F1B1FA81F101F01F0104FA01F10842F0
:10110000E4D020E0FFF70CFB804607E0C2E000BF20
:10111000FFF706FBA0EB08006428DCD897FAA7F0DD
:10112000B0FA80F040F02000400901D0306800E0C3
:10113000706A97FAA7F1B1FA81F101F01F0104FA80
:1011400001F10842E4D12878DFF8D48280074FF01B
:10115000000A4FF0020730D570684FF0F80B10F01E
:101160000C0F07D07068C0F38100022827D1706887
:10117000C00324D497FAA7F0B0FA80F040F0200022
:10118000400901D0306800E0706A97FAA7F1B1FA1F
:1011900081F101F01F0104FA01F1084202D028692F
:1011A000012877D130689BFAABF220F0F80168692A
:1011B000B2FA82F29040014331605AE064E128695A
:1011C00088B394FAA4F0B0FA80F048F82040FFF712
:1011D000A7FA814606E000BFFFF7A2FAA0EB0900DC
:1011E00002289AD897FAA7F0B0FA80F040F02000D1
:1011F000400901D0306800E0706A97FAA7F1B1FAAF
:1012000081F101F01F0104FA01F10842E4D03068D5
:101210009BFAABF26969B2FA82F220F0F8009140D1
:101220000843306025E0FFE794FAA4F0B0FA80F0BC
:1012300048F820A0FFF774FA814605E0FFF770FA3E
:10124000A0EB09000228CCD897FAA7F0B0FA80F0FA
:1012500040F02000400901D0306800E0706A97FA41
:10126000A7F1B1FA81F101F01F0104FA01F108427E
:10127000E4D1287800076CD5A869A8B394FAA4F043
:10128000B0FA80F008EB8000C0F88044FFF748FA1D
:10129000814607E0A4E100BFFFF742FAA0EB090096
:1012A00002289ED897FAA7F0B0FA80F040F06000CC
:1012B000B4EB501F01D130680BE097FAA7F0B0FAF9
:1012C00080F040F06000B7EB501F01D1306A00E0C1
:1012D000706A97FAA7F1B1FA81F101F01F0104FADF
:1012E00001F21042D8D034E0FFE794FAA4F1B1FA49
:1012F00081F108EB8101C1F880A4FFF711FA814662
:1013000006E000BFFFF70CFAA0EB090002289AD80C
:1013100097FAA7F0B0FA80F040F06000B4EB501FED
:1013200001D130680BE097FAA7F0B0FA80F040F0F6
:101330006000B7EB501F01D1306A00E0706A97FA85
:10134000A7F1B1FA81F101F01F0104FA01F2104294
:10135000D8D12878400768D5F0694FF00009C0005F
:1013600009D4F06940F08050F061F0694FF0010954
:1013700000F0805000902B480168C90512D4016824
:1013800041F480710160FFF7CBF9834606E000BFAE
:10139000FFF7C6F9A0EB0B00642875D82148006858
:1013A000C005F5D5E86801280AD008B1052811D094
:1013B000306A20F001003062306A20F0040002E060
:1013C000306A40F001003062E86868B3FFF7A8F9BE
:1013D00083460DE0306A40F004003062F0E700BF61
:1013E000FFF79EF9A0EB0B0141F2883081424BD808
:1013F00097FAA7F0B0FA80F040F04000B4EB501F2D
:1014000001D1306813E097FAA7F0B0FA80F040F00D
:101410004000B7EB501F09D1306A08E000100240CD
:1014200000004242007000400CE040E0706A97FA11
:10143000A7F1B1FA81F101F01F0104FA01F21042A3
:10144000CED02DE0FFF76CF9834607E0FFF768F98F
:10145000A0EB0B0141F28830814215D897FAA7F032
:10146000B0FA80F040F04000B4EB501F01D130687A
:101470000CE097FAA7F0B0FA80F040F04000B7EB2C
:10148000501F02D1306A01E083E0706A97FAA7F139
:10149000B1FA81F101F01F0104FA01F21042D5D135
:1014A000B9F1000F03D0F06920F08050F061E869D5
:1014B00080B37168C1F38101022977D04FF0807148
:1014C0004F000228504609D091FAA1F1B1FA81F1FA
:1014D00048F82100FFF724F905465DE0894691FAB6
:1014E000A1F1B1FA81F1C24648F82100FFF718F9DD
:1014F000804605E0FFF714F9A0EB0800022848D861
:1015000097FAA7F0B0FA80F040F02000400902D02E
:10151000306801E066E0706A97FAA7F1B1FA81F1EC
:1015200001F01F0104FA01F10842E3D1D5E90810E6
:101530000843716821F474110843706099FAA9F0A6
:10154000B0FA80F04AF82040FFF7EAF8054604E0D8
:10155000FFF7E6F8401B02281BD897FAA7F0B0FA6D
:1015600080F040F02000400901D0306800E0706A4F
:1015700097FAA7F1B1FA81F101F01F0104FA01F124
:101580000842E5D02EE000BFFFF7CAF8401B022852
:1015900002D90320BDE8F88F97FAA7F0B0FA80F0DF
:1015A00040F02000400902D0306801E00BE0706A92
:1015B00097FAA7F1B1FA81F101F01F0104FA01F1E4
:1015C0000842E1D10EE00128E4D070682A6A00F4F4
:1015D0008031914204D1696A00F47010884201D0D0
:1015E0000120D7E70020D5E710B5401EB0F1807F7D
:1015F00001D3012010BD4FF0E02460610F2160177E
:1016000000F0C1FC0020A06107202061002010BD77
:10161000704770472DE9F04102680446D0691168AF
:10162000936840F60F0528424FF0000505D1860665
:101630007BD58E0679D5216E88E003F0010601F492
:101640009077374371D0C70707D0CF0505D501275D
:101650001762E26F42F00102E267820708D5DA07FB
:1016600006D0276802223A62E26F42F00402E26783
:10167000420708D5DA0706D0236804221A62E26F0F
:1016800042F00202E26702070AD501F0200232436B
:1016900006D0236808221A62E26F42F00802E2676D
:1016A000020509D54A0107D523684FF400621A6282
:1016B000E26F42F02002E267E26F002A2ED080063D
:1016C00005D5880603D5216E09B120468847E06F0D
:1016D00021688968490602D410F0280F20D02046DE
:1016E00000F03AFB20688168490614D5816821F032
:1016F00040018160E06E70B11D494163E06EFEF70C
:1017000005FF00280AD0E06E416B00E02046BDE8EE
:10171000F041084709E02046FFF77BFFBDE8F08174
:101720002046FFF776FFE567F8E7C60209D55B02BA
:1017300007D54FF4801010622046BDE8F041FFF756
:1017400067BF030605D50B0603D5616E0029DDD101
:10175000E4E74006E2D54806E0D51168204621F0CE
:101760004001116020216167656600F0CBF8D5E784
:10177000451D000810B5040002D0606F10B107E0ED
:10178000012010BD002084F87000204600F026F8EB
:10179000242060672068016821F001010160204673
:1017A00000F0EAFA0128ECD0606A10B1204600F09F
:1017B00039FA2068416821F49041416020688168CD
:1017C00021F02A0181602068016841F00101016077
:1017D0002046BDE8104000F089BA000010B586B080
:1017E000044614216846FEF733FD174920688842F5
:1017F00027D11648C16941F40031C161C16901F4C2
:1018000000310591416941F4003141614069694607
:1018100000F4003005900C20009002200190002080
:10182000029003200390072004904FF09040FEF7B1
:10183000A5FE002211462620FFF7FCF92620FFF71F
:10184000EBF906B010BD000000440040001002405B
:101850002DE9F8430446406F1F4616460D462028E2
:101860004ED1CDB1C6B194F87000012848D0012006
:1018700084F870004FF00008C4F87C802120606775
:10188000FEF74EFFA4F850608146A4F85260A068AD
:10189000B0F5805F03D004E00120BDE8F883206943
:1018A00010B12E46002510E000260EE080212046D3
:1018B00000F010FBB8B9C6B116F8010B2168088515
:1018C000B4F85200401EA4F85200B4F852004B463F
:1018D0004FF0000200970028E8D14FF04001204669
:1018E00000F0F8FA30B10320D7E735F8020BC0F367
:1018F0000800E3E72020606784F870800020CCE7D0
:101900000220CAE77047FEE701688A69D24392075E
:1019100001D400228A6200688169C943C90703D0E3
:10192000816941F001018161704700002DE9F041BA
:101930000446006890460E468069C043C00633D412
:101940000025202720688069C043800615D5701CBB
:10195000F8D0FEF7E5FEA0EB0800B04201D8002E5B
:10196000F0D154F8440F40F0200044F804096770A7
:10197000A57025700120BDE8F08121681020C861A4
:101980002068C7612046FFF7BFFF54F8440B416849
:10199000064A11404160206840F0040044F82009E4
:1019A0006777A5772577E5E70020E4E700E800FE04
:1019B0002DE9F84304461646DDE908971448984691
:1019C000DAB200900023204600F024F83A46494657
:1019D000204600F087F8B8B9F5B2B8F1010F08D089
:1019E0002168300A88623A464946204600F07AF873
:1019F00050B9206885624B4600224021204600975E
:101A000000F01EF8002800D00120BDE8F883000097
:101A100000200080F0B50568059C68684FF480667A
:101A2000064FC1F3090106EA545641EA02413E431A
:101A30001943B043214308436860F0BDFF63FF03CF
:101A40002DE9F0411D4617460E460446DDF8188084
:101A500008E0681C06D0FEF763FEA0EB0800A84271
:101A60000BD855B12068806936EA000012D00020FA
:101A7000B842EED00020BDE8F08154F8440F40F0A9
:101A8000200044F80409202060700020A07020701D
:101A90000120F0E70120EBE770B516460D4604463D
:101AA0000DE0324629462046FFF740FF08B10120ED
:101AB00070BDFEF735FE801BA84207D835B12068FF
:101AC0008069C0438006ECD4002070BD54F8440FF8
:101AD00040F0200044F80409202060700020A0702D
:101AE0002070E4E770B516460D4604460FE0324616
:101AF00029462046FFF71AFF08B1012070BD681C77
:101B000005D0FEF70DFE801BA84207D835B120682E
:101B10008069C0438007EAD4002070BD54F8440FA8
:101B200040F0200044F80409202060700020A070DC
:101B30002070E2E70E4810B50C4901600D49416084
:101B400000210122C0E90212016141618161C1618C
:101B50000162FEF73FFE00210548FEF7E7FDBDE804
:101B6000104000210248FEF70CBE00000054004067
:101B7000100000200E0900200948084901604FF4B8
:101B800016414160002181600C22C160C0E904124D
:101B90008161C16101624162FFF7ECBD0044004018
:101BA0005C000020FEE7704770477047FEF7E4BF17
:101BB00010B596B028216846FEF74AFB14210AA802
:101BC000FEF746FB18210FA8FEF742FB022000900B
:101BD0000120049010200024059007946846FFF728
:101BE0001FFA0F20CDE90A040C940D9400210AA8D5
:101BF0000E94FFF70BF920200F9012940FA8FFF717
:101C00004BF816B010BD00000548016841F47001A2
:101C1000016003494FF000608039086070470000A0
:101C200088ED00E090F82410C90706D001684A68E2
:101C3000836A22F400321A434A6090F8241089071C
:101C400006D501684A68C36A22F480321A434A60A2
:101C500090F82410490706D501684A68036B22F4FE
:101C600080221A434A6090F82410090706D50168BB
:101C70004A68436B22F400421A434A6090F82410E9
:101C8000C90606D501688A68836B22F480521A431C
:101C90008A6090F82410890606D501688A68C36BAB
:101CA00022F400521A438A6090F82410490611D594
:101CB00001684A68036C22F480121A434A60016C7E
:101CC000B1F5801F06D101684A68436C22F4C00256
:101CD0001A434A6090F82410090606D501684A683C
:101CE000806C22F4002202434A607047F8B5002657
:101CF0000446C667FEF714FD0546206800686FF0CD
:101D00007E47000708D52B4600224FF400112046DD
:101D1000009700F0DFF860B92068006840070AD536
:101D20002B4600224FF480012046009700F0D2F8A5
:101D300008B10320F8BD20206067A06784F87060B8
:101D40000020F8BD10B5406A0021A0F85A10A0F894
:101D50005210FFF75EFC10BD01680A6822F4907211
:101D60000A6001688A6822F001028A602021816786
:101D7000002101667047000070B504468068216943
:101D8000E26908436169002511432268084311682C
:101D9000494B19400143116020684168E26821F411
:101DA000405111434160A169206A084321688A6853
:101DB00022F4306202438A6040492068884210D190
:101DC0003F48006B10F0030014D0012805D0022812
:101DD00005D003280DD102200CE004200AE00820E1
:101DE00008E03849884202D03749884201D10020B2
:101DF00000E01020E2694FF400414FF6EF768A428E
:101E00002CD1092851D2DFE800F005081F502250DC
:101E100050502500FFF79EF801E0FFF7B3F84100AE
:101E2000D4F8040001EB5001B1FBF0F080B2A0F156
:101E30001001B14239D84FF6F0710140C0F34200B1
:101E400001432068C16031E020496068EAE7FFF79C
:101E5000B1F8E4E74FF480316068E3E7092824D261
:101E6000DFE800F0050817231A2323231D00FFF7DE
:101E700071F801E0FFF786F8616800EB5100B0FBF4
:101E8000F1F080B2A0F11001B1420ED82168C86013
:101E90000CE00F49606803E0FFF78CF8ECE760683E
:101EA00001EB5001B1FBF0F0EBE7012500202066CB
:101EB0006066284670BD0000F369FFEF00380140FE
:101EC0000010024000440040004800400024F4009C
:101ED00000127A002DE9F0479A4617460E4604464E
:101EE0004FF000094FF02008089D39E0681C37D0FA
:101EF000FEF716FCA0EB0A00A84222D80DB320681A
:101F0000016849072CD5C069C043000528D4216861
:101F10004FF4006008622068016821F4D07101600C
:101F20002068816821F001018160C4F87480C4F8E0
:101F30007880C4F87C8000BF84F870900320BDE8EE
:101F4000F0872068016821F4D07101602068816801
:101F500021F001018160C4F87480C4F87880EBE757
:101F60002068C06936EA000004D00020B842BDD025
:101F70000020E4E70120F9E70148FFF74BBB000030
:101F80005C000020FEE70907090E002804DB00F1D1
:101F9000E02080F80014704700F00F0000F1E0200E
:101FA00080F8141D704702E008C8121F08C1002AFB
:101FB000FAD170477047002001E001C1121F002ACA
:101FC000FBD170472DED048B88B0FEF7DDFDFFF7E8
:101FD000EFFD4048416941F400314161416901F43C
:101FE00000310091416941F480214161406900F470
:101FF00080200090FFF79EFDFFF7BEFD0E208DF8BC
:102000001C00202034A28DF81D0007CA04AB9FEDF0
:10201000358B83E80700DFED359A03AF4FF00208F8
:102020000A244FF47A76B2EE049A022307AAD0214A
:102030002F480094FEF72AFC0097CDE90186012382
:102040001122D1212A48FEF7B3FC9DF80D009DF81E
:102050000C508009FEF779F953EC182BFEF703F9C1
:10206000FEF780F900EE100AE80930D05FF02D008D
:102070008DF8100095FBF4F030308DF8110095FBD1
:10208000F4F060EE090A04FB10503030FDEEE00A77
:1020900020EE290A8DF8120010EE900A0A23BDEEF8
:1020A000C00A30308DF8140010EE100A092290FB9F
:1020B000F4F104FB110030308DF815000C4804A930
:1020C0004C30FFF7C5FB3046FEF746FAADE72B2054
:1020D000CEE70000001002402B00002E0000600D33
:1020E0000A000000000000000000D03F0000C842CD
:1020F0001000002002030405060708090A0B0C0D56
:102100000E0F10100102030405060708090A0B0C44
:102110000D0E0F100000000000000000010203047B
:102120000607080900000000010203044C21000812
:102130000000002010000000A61F00085C2100081D
:1021400010000020D0040000B61F000801000000AD
:0C215000100000000000000000127A00E7
:040000050800018965
:00000001FF
